{
  "address": "0x5FbDB2315678afecb367f032d93F642f64180aa3",
  "abi": [
    {
      "inputs": [
        {
          "internalType": "string",
          "name": "name",
          "type": "string"
        },
        {
          "internalType": "string",
          "name": "party",
          "type": "string"
        }
      ],
      "name": "addCandidate",
      "outputs": [
        {
          "internalType": "uint256",
          "name": "",
          "type": "uint256"
        }
      ],
      "stateMutability": "nonpayable",
      "type": "function"
    },
    {
      "inputs": [
        {
          "internalType": "uint256",
          "name": "",
          "type": "uint256"
        }
      ],
      "name": "candidates",
      "outputs": [
        {
          "internalType": "uint256",
          "name": "id",
          "type": "uint256"
        },
        {
          "internalType": "string",
          "name": "name",
          "type": "string"
        },
        {
          "internalType": "string",
          "name": "party",
          "type": "string"
        },
        {
          "internalType": "uint256",
          "name": "voteCount",
          "type": "uint256"
        }
      ],
      "stateMutability": "view",
      "type": "function"
    },
    {
      "inputs": [],
      "name": "checkVote",
      "outputs": [
        {
          "internalType": "bool",
          "name": "",
          "type": "bool"
        }
      ],
      "stateMutability": "view",
      "type": "function"
    },
    {
      "inputs": [],
      "name": "countCandidates",
      "outputs": [
        {
          "internalType": "uint256",
          "name": "",
          "type": "uint256"
        }
      ],
      "stateMutability": "view",
      "type": "function"
    },
    {
      "inputs": [
        {
          "internalType": "uint256",
          "name": "candidateID",
          "type": "uint256"
        }
      ],
      "name": "getCandidate",
      "outputs": [
        {
          "internalType": "uint256",
          "name": "",
          "type": "uint256"
        },
        {
          "internalType": "string",
          "name": "",
          "type": "string"
        },
        {
          "internalType": "string",
          "name": "",
          "type": "string"
        },
        {
          "internalType": "uint256",
          "name": "",
          "type": "uint256"
        }
      ],
      "stateMutability": "view",
      "type": "function"
    },
    {
      "inputs": [],
      "name": "getCountCandidates",
      "outputs": [
        {
          "internalType": "uint256",
          "name": "",
          "type": "uint256"
        }
      ],
      "stateMutability": "view",
      "type": "function"
    },
    {
      "inputs": [],
      "name": "getDates",
      "outputs": [
        {
          "internalType": "uint256",
          "name": "",
          "type": "uint256"
        },
        {
          "internalType": "uint256",
          "name": "",
          "type": "uint256"
        }
      ],
      "stateMutability": "view",
      "type": "function"
    },
    {
      "inputs": [
        {
          "internalType": "uint256",
          "name": "_startDate",
          "type": "uint256"
        },
        {
          "internalType": "uint256",
          "name": "_endDate",
          "type": "uint256"
        }
      ],
      "name": "setDates",
      "outputs": [],
      "stateMutability": "nonpayable",
      "type": "function"
    },
    {
      "inputs": [
        {
          "internalType": "uint256",
          "name": "candidateID",
          "type": "uint256"
        }
      ],
      "name": "vote",
      "outputs": [],
      "stateMutability": "nonpayable",
      "type": "function"
    },
    {
      "inputs": [
        {
          "internalType": "address",
          "name": "",
          "type": "address"
        }
      ],
      "name": "voters",
      "outputs": [
        {
          "internalType": "bool",
          "name": "",
          "type": "bool"
        }
      ],
      "stateMutability": "view",
      "type": "function"
    },
    {
      "inputs": [],
      "name": "votingEnd",
      "outputs": [
        {
          "internalType": "uint256",
          "name": "",
          "type": "uint256"
        }
      ],
      "stateMutability": "view",
      "type": "function"
    },
    {
      "inputs": [],
      "name": "votingStart",
      "outputs": [
        {
          "internalType": "uint256",
          "name": "",
          "type": "uint256"
        }
      ],
      "stateMutability": "view",
      "type": "function"
    }
  ],
  "transactionHash": "0xf1dd0eb582cb693d6e68f154bd4edacdf30f830ca2d8d266afb277795a627857",
  "args": [],
  "numDeployments": 1,
  "solcInputHash": "8dfa1f5bed37c9326207df832590758c",
  "bytecode": "0x6080604052348015600f57600080fd5b50610fdc8061001f6000396000f3fe608060405234801561001057600080fd5b50600436106100b45760003560e01c806335b8e8201161007157806335b8e8201461019357806385a38635146101c6578063a3ec138d146101e4578063b0417e9814610214578063b86eda9114610232578063dedf141e14610250576100b4565b80630121b93f146100b95780630a84a217146100d5578063101158af146100f3578063164418131461011157806326541b56146101305780633477ee2e14610160575b600080fd5b6100d360048036038101906100ce919061080c565b61026c565b005b6100dd61037f565b6040516100ea9190610848565b60405180910390f35b6100fb610389565b6040516101089190610848565b60405180910390f35b61011961038f565b604051610127929190610863565b60405180910390f35b61014a600480360381019061014591906109d2565b6103a0565b6040516101579190610848565b60405180910390f35b61017a6004803603810190610175919061080c565b610440565b60405161018a9493929190610ac9565b60405180910390f35b6101ad60048036038101906101a8919061080c565b610580565b6040516101bd9493929190610ac9565b60405180910390f35b6101ce6106ef565b6040516101db9190610848565b60405180910390f35b6101fe60048036038101906101f99190610b7a565b6106f5565b60405161020b9190610bc2565b60405180910390f35b61021c610715565b6040516102299190610bc2565b60405180910390f35b61023a610769565b6040516102479190610848565b60405180910390f35b61026a60048036038101906102659190610bdd565b61076f565b005b426004541115801561027f575042600354115b61028857600080fd5b60008111801561029a57506002548111155b6102a357600080fd5b600160003373ffffffffffffffffffffffffffffffffffffffff1673ffffffffffffffffffffffffffffffffffffffff16815260200190815260200160002060009054906101000a900460ff16156102fa57600080fd5b60018060003373ffffffffffffffffffffffffffffffffffffffff1673ffffffffffffffffffffffffffffffffffffffff16815260200190815260200160002060006101000a81548160ff021916908315150217905550600080828152602001908152602001600020600301600081548092919061037790610c4c565b919050555050565b6000600254905090565b60045481565b600080600454600354915091509091565b6000600260008154809291906103b590610c4c565b919050555060405180608001604052806002548152602001848152602001838152602001600081525060008060025481526020019081526020016000206000820151816000015560208201518160010190816104119190610ea0565b5060408201518160020190816104279190610ea0565b5060608201518160030155905050600254905092915050565b600060205280600052604060002060009150905080600001549080600101805461046990610cc3565b80601f016020809104026020016040519081016040528092919081815260200182805461049590610cc3565b80156104e25780601f106104b7576101008083540402835291602001916104e2565b820191906000526020600020905b8154815290600101906020018083116104c557829003601f168201915b5050505050908060020180546104f790610cc3565b80601f016020809104026020016040519081016040528092919081815260200182805461052390610cc3565b80156105705780601f1061054557610100808354040283529160200191610570565b820191906000526020600020905b81548152906001019060200180831161055357829003601f168201915b5050505050908060030154905084565b6000606080600084600080878152602001908152602001600020600101600080888152602001908152602001600020600201600080898152602001908152602001600020600301548280546105d490610cc3565b80601f016020809104026020016040519081016040528092919081815260200182805461060090610cc3565b801561064d5780601f106106225761010080835404028352916020019161064d565b820191906000526020600020905b81548152906001019060200180831161063057829003601f168201915b5050505050925081805461066090610cc3565b80601f016020809104026020016040519081016040528092919081815260200182805461068c90610cc3565b80156106d95780601f106106ae576101008083540402835291602001916106d9565b820191906000526020600020905b8154815290600101906020018083116106bc57829003601f168201915b5050505050915093509350935093509193509193565b60035481565b60016020528060005260406000206000915054906101000a900460ff1681565b6000600160003373ffffffffffffffffffffffffffffffffffffffff1673ffffffffffffffffffffffffffffffffffffffff16815260200190815260200160002060009054906101000a900460ff16905090565b60025481565b600060035414801561078357506000600454145b801561079c575042620f42408361079a9190610f72565b115b80156107a757508181115b6107b057600080fd5b80600381905550816004819055505050565b6000604051905090565b600080fd5b600080fd5b6000819050919050565b6107e9816107d6565b81146107f457600080fd5b50565b600081359050610806816107e0565b92915050565b600060208284031215610822576108216107cc565b5b6000610830848285016107f7565b91505092915050565b610842816107d6565b82525050565b600060208201905061085d6000830184610839565b92915050565b60006040820190506108786000830185610839565b6108856020830184610839565b9392505050565b600080fd5b600080fd5b6000601f19601f8301169050919050565b7f4e487b7100000000000000000000000000000000000000000000000000000000600052604160045260246000fd5b6108df82610896565b810181811067ffffffffffffffff821117156108fe576108fd6108a7565b5b80604052505050565b60006109116107c2565b905061091d82826108d6565b919050565b600067ffffffffffffffff82111561093d5761093c6108a7565b5b61094682610896565b9050602081019050919050565b82818337600083830152505050565b600061097561097084610922565b610907565b90508281526020810184848401111561099157610990610891565b5b61099c848285610953565b509392505050565b600082601f8301126109b9576109b861088c565b5b81356109c9848260208601610962565b91505092915050565b600080604083850312156109e9576109e86107cc565b5b600083013567ffffffffffffffff811115610a0757610a066107d1565b5b610a13858286016109a4565b925050602083013567ffffffffffffffff811115610a3457610a336107d1565b5b610a40858286016109a4565b9150509250929050565b600081519050919050565b600082825260208201905092915050565b60005b83811015610a84578082015181840152602081019050610a69565b60008484015250505050565b6000610a9b82610a4a565b610aa58185610a55565b9350610ab5818560208601610a66565b610abe81610896565b840191505092915050565b6000608082019050610ade6000830187610839565b8181036020830152610af08186610a90565b90508181036040830152610b048185610a90565b9050610b136060830184610839565b95945050505050565b600073ffffffffffffffffffffffffffffffffffffffff82169050919050565b6000610b4782610b1c565b9050919050565b610b5781610b3c565b8114610b6257600080fd5b50565b600081359050610b7481610b4e565b92915050565b600060208284031215610b9057610b8f6107cc565b5b6000610b9e84828501610b65565b91505092915050565b60008115159050919050565b610bbc81610ba7565b82525050565b6000602082019050610bd76000830184610bb3565b92915050565b60008060408385031215610bf457610bf36107cc565b5b6000610c02858286016107f7565b9250506020610c13858286016107f7565b9150509250929050565b7f4e487b7100000000000000000000000000000000000000000000000000000000600052601160045260246000fd5b6000610c57826107d6565b91507fffffffffffffffffffffffffffffffffffffffffffffffffffffffffffffffff8203610c8957610c88610c1d565b5b600182019050919050565b7f4e487b7100000000000000000000000000000000000000000000000000000000600052602260045260246000fd5b60006002820490506001821680610cdb57607f821691505b602082108103610cee57610ced610c94565b5b50919050565b60008190508160005260206000209050919050565b60006020601f8301049050919050565b600082821b905092915050565b600060088302610d567fffffffffffffffffffffffffffffffffffffffffffffffffffffffffffffffff82610d19565b610d608683610d19565b95508019841693508086168417925050509392505050565b6000819050919050565b6000610d9d610d98610d93846107d6565b610d78565b6107d6565b9050919050565b6000819050919050565b610db783610d82565b610dcb610dc382610da4565b848454610d26565b825550505050565b600090565b610de0610dd3565b610deb818484610dae565b505050565b5b81811015610e0f57610e04600082610dd8565b600181019050610df1565b5050565b601f821115610e5457610e2581610cf4565b610e2e84610d09565b81016020851015610e3d578190505b610e51610e4985610d09565b830182610df0565b50505b505050565b600082821c905092915050565b6000610e7760001984600802610e59565b1980831691505092915050565b6000610e908383610e66565b9150826002028217905092915050565b610ea982610a4a565b67ffffffffffffffff811115610ec257610ec16108a7565b5b610ecc8254610cc3565b610ed7828285610e13565b600060209050601f831160018114610f0a5760008415610ef8578287015190505b610f028582610e84565b865550610f6a565b601f198416610f1886610cf4565b60005b82811015610f4057848901518255600182019150602085019450602081019050610f1b565b86831015610f5d5784890151610f59601f891682610e66565b8355505b6001600288020188555050505b505050505050565b6000610f7d826107d6565b9150610f88836107d6565b9250828201905080821115610fa057610f9f610c1d565b5b9291505056fea2646970667358221220a06491ad601827435a58cf221699253d91804c6e96d42407c718c167ad77303c64736f6c634300081c0033",
  "devdoc": {
    "kind": "dev",
    "methods": {},
    "version": 1
  },
  "userdoc": {
    "kind": "user",
    "methods": {},
    "version": 1
  },
  "storageLayout": {
    "storage": [
      {
        "astId": 15,
        "contract": "contracts/Voting.sol:Voting",
        "label": "candidates",
        "offset": 0,
        "slot": "0",
        "type": "t_mapping(t_uint256,t_struct(Candidate)10_storage)"
      },
      {
        "astId": 19,
        "contract": "contracts/Voting.sol:Voting",
        "label": "voters",
        "offset": 0,
        "slot": "1",
        "type": "t_mapping(t_address,t_bool)"
      },
      {
        "astId": 21,
        "contract": "contracts/Voting.sol:Voting",
        "label": "countCandidates",
        "offset": 0,
        "slot": "2",
        "type": "t_uint256"
      },
      {
        "astId": 23,
        "contract": "contracts/Voting.sol:Voting",
        "label": "votingEnd",
        "offset": 0,
        "slot": "3",
        "type": "t_uint256"
      },
      {
        "astId": 25,
        "contract": "contracts/Voting.sol:Voting",
        "label": "votingStart",
        "offset": 0,
        "slot": "4",
        "type": "t_uint256"
      }
    ],
    "types": {
      "t_address": {
        "encoding": "inplace",
        "label": "address",
        "numberOfBytes": "20"
      },
      "t_bool": {
        "encoding": "inplace",
        "label": "bool",
        "numberOfBytes": "1"
      },
      "t_mapping(t_address,t_bool)": {
        "encoding": "mapping",
        "key": "t_address",
        "label": "mapping(address => bool)",
        "numberOfBytes": "32",
        "value": "t_bool"
      },
      "t_mapping(t_uint256,t_struct(Candidate)10_storage)": {
        "encoding": "mapping",
        "key": "t_uint256",
        "label": "mapping(uint256 => struct Voting.Candidate)",
        "numberOfBytes": "32",
        "value": "t_struct(Candidate)10_storage"
      },
      "t_string_storage": {
        "encoding": "bytes",
        "label": "string",
        "numberOfBytes": "32"
      },
      "t_struct(Candidate)10_storage": {
        "encoding": "inplace",
        "label": "struct Voting.Candidate",
        "members": [
          {
            "astId": 3,
            "contract": "contracts/Voting.sol:Voting",
            "label": "id",
            "offset": 0,
            "slot": "0",
            "type": "t_uint256"
          },
          {
            "astId": 5,
            "contract": "contracts/Voting.sol:Voting",
            "label": "name",
            "offset": 0,
            "slot": "1",
            "type": "t_string_storage"
          },
          {
            "astId": 7,
            "contract": "contracts/Voting.sol:Voting",
            "label": "party",
            "offset": 0,
            "slot": "2",
            "type": "t_string_storage"
          },
          {
            "astId": 9,
            "contract": "contracts/Voting.sol:Voting",
            "label": "voteCount",
            "offset": 0,
            "slot": "3",
            "type": "t_uint256"
          }
        ],
        "numberOfBytes": "128"
      },
      "t_uint256": {
        "encoding": "inplace",
        "label": "uint256",
        "numberOfBytes": "32"
      }
    }
  }
}